{
    "_format": "hh-sol-artifact-1",
    "contractName": "GMPortal",
    "sourceName": "contracts/GMPortal.sol",
    "abi": [
        {
            "inputs": [],
            "stateMutability": "payable",
            "type": "constructor"
        },
        {
            "anonymous": false,
            "inputs": [
                {
                    "indexed": true,
                    "internalType": "address",
                    "name": "from",
                    "type": "address"
                },
                {
                    "indexed": false,
                    "internalType": "uint256",
                    "name": "timestamp",
                    "type": "uint256"
                },
                {
                    "indexed": false,
                    "internalType": "string",
                    "name": "message",
                    "type": "string"
                }
            ],
            "name": "NewGM",
            "type": "event"
        },
        {
            "inputs": [
                {
                    "internalType": "address",
                    "name": "",
                    "type": "address"
                }
            ],
            "name": "addressToGms",
            "outputs": [
                {
                    "internalType": "uint256",
                    "name": "",
                    "type": "uint256"
                }
            ],
            "stateMutability": "view",
            "type": "function"
        },
        {
            "inputs": [],
            "name": "getAllGMs",
            "outputs": [
                {
                    "components": [
                        {
                            "internalType": "address",
                            "name": "user",
                            "type": "address"
                        },
                        {
                            "internalType": "string",
                            "name": "message",
                            "type": "string"
                        },
                        {
                            "internalType": "uint256",
                            "name": "timestamp",
                            "type": "uint256"
                        }
                    ],
                    "internalType": "struct GMPortal.GM[]",
                    "name": "",
                    "type": "tuple[]"
                }
            ],
            "stateMutability": "view",
            "type": "function"
        },
        {
            "inputs": [],
            "name": "getTotalGMs",
            "outputs": [
                {
                    "internalType": "uint256",
                    "name": "",
                    "type": "uint256"
                }
            ],
            "stateMutability": "view",
            "type": "function"
        },
        {
            "inputs": [
                {
                    "internalType": "string",
                    "name": "_message",
                    "type": "string"
                }
            ],
            "name": "gm",
            "outputs": [],
            "stateMutability": "nonpayable",
            "type": "function"
        },
        {
            "inputs": [
                {
                    "internalType": "address",
                    "name": "",
                    "type": "address"
                }
            ],
            "name": "lastGmAt",
            "outputs": [
                {
                    "internalType": "uint256",
                    "name": "",
                    "type": "uint256"
                }
            ],
            "stateMutability": "view",
            "type": "function"
        }
    ],
    "bytecode": "0x60806040526200004f6040518060400160405280601881526020017f474d2066726f6d2056616e636f757665722c205741474d4900000000000000008152506200007760201b620007541760201c565b606444426200005f9190620001c4565b6200006b919062000261565b60018190555062000308565b62000117816040516024016200008e919062000184565b6040516020818303038152906040527f41304fac000000000000000000000000000000000000000000000000000000007bffffffffffffffffffffffffffffffffffffffffffffffffffffffff19166020820180517bffffffffffffffffffffffffffffffffffffffffffffffffffffffff83818316178352505050506200011a60201b60201c565b50565b60008151905060006a636f6e736f6c652e6c6f679050602083016000808483855afa5050505050565b60006200015082620001a8565b6200015c8185620001b3565b93506200016e8185602086016200022b565b6200017981620002f7565b840191505092915050565b60006020820190508181036000830152620001a0818462000143565b905092915050565b600081519050919050565b600082825260208201905092915050565b6000620001d18262000221565b9150620001de8362000221565b9250827fffffffffffffffffffffffffffffffffffffffffffffffffffffffffffffffff0382111562000216576200021562000299565b5b828201905092915050565b6000819050919050565b60005b838110156200024b5780820151818401526020810190506200022e565b838111156200025b576000848401525b50505050565b60006200026e8262000221565b91506200027b8362000221565b9250826200028e576200028d620002c8565b5b828206905092915050565b7f4e487b7100000000000000000000000000000000000000000000000000000000600052601160045260246000fd5b7f4e487b7100000000000000000000000000000000000000000000000000000000600052601260045260246000fd5b6000601f19601f8301169050919050565b61136c80620003186000396000f3fe608060405234801561001057600080fd5b50600436106100575760003560e01c8063085799a61461005c5780631ba7f2e71461007a5780631c3225a91461009857806399828549146100c8578063d8686ecb146100f8575b600080fd5b610064610114565b6040516100719190610ee1565b60405180910390f35b61008261015f565b60405161008f9190610d9f565b60405180910390f35b6100b260048036038101906100ad9190610b0d565b6102b0565b6040516100bf9190610ee1565b60405180910390f35b6100e260048036038101906100dd9190610b0d565b6102c8565b6040516100ef9190610ee1565b60405180910390f35b610112600480360381019061010d9190610b36565b6102e0565b005b60006101576040518060400160405280601581526020017f5765206861766520256420746f74616c20676d732100000000000000000000008152506000546107ed565b600054905090565b60606004805480602002602001604051908101604052809291908181526020016000905b828210156102a757838290600052602060002090600302016040518060600160405290816000820160009054906101000a900473ffffffffffffffffffffffffffffffffffffffff1673ffffffffffffffffffffffffffffffffffffffff1673ffffffffffffffffffffffffffffffffffffffff16815260200160018201805461020c906110c7565b80601f0160208091040260200160405190810160405280929190818152602001828054610238906110c7565b80156102855780601f1061025a57610100808354040283529160200191610285565b820191906000526020600020905b81548152906001019060200180831161026857829003601f168201915b5050505050815260200160028201548152505081526020019060010190610183565b50505050905090565b60036020528060005260406000206000915090505481565b60026020528060005260406000206000915090505481565b426005600360003373ffffffffffffffffffffffffffffffffffffffff1673ffffffffffffffffffffffffffffffffffffffff1681526020019081526020016000205461032d9190610ff3565b1061036d576040517f08c379a000000000000000000000000000000000000000000000000000000000815260040161036490610ec1565b60405180910390fd5b42600360003373ffffffffffffffffffffffffffffffffffffffff1673ffffffffffffffffffffffffffffffffffffffff1681526020019081526020016000208190555060016000808282546103c39190610ff3565b925050819055506001600260003373ffffffffffffffffffffffffffffffffffffffff1673ffffffffffffffffffffffffffffffffffffffff168152602001908152602001600020600082825461041a9190610ff3565b925050819055506104836040518060600160405280602d815260200161130a602d913933600260003373ffffffffffffffffffffffffffffffffffffffff1673ffffffffffffffffffffffffffffffffffffffff16815260200190815260200160002054610889565b600460405180606001604052803373ffffffffffffffffffffffffffffffffffffffff16815260200183815260200142815250908060018154018082558091505060019003906000526020600020906003020160009091909190915060008201518160000160006101000a81548173ffffffffffffffffffffffffffffffffffffffff021916908373ffffffffffffffffffffffffffffffffffffffff16021790555060208201518160010190805190602001906105429291906109ed565b50604082015181600201555050606460015442446105609190610ff3565b61056a9190610ff3565b610574919061112a565b6001819055506105bb6040518060400160405280601781526020017f72616e646f6d206e756d2067656e6572617465642025640000000000000000008152506001546107ed565b602a60015411610701576106046040518060400160405280600781526020017f257320776f6e210000000000000000000000000000000000000000000000000081525033610928565b6000653ec1507d5000905047811115610652576040517f08c379a000000000000000000000000000000000000000000000000000000000815260040161064990610e81565b60405180910390fd5b60003373ffffffffffffffffffffffffffffffffffffffff168260405161067890610d8a565b60006040518083038185875af1925050503d80600081146106b5576040519150601f19603f3d011682016040523d82523d6000602084013e6106ba565b606091505b50509050806106fe576040517f08c379a00000000000000000000000000000000000000000000000000000000081526004016106f590610ea1565b60405180910390fd5b50505b3373ffffffffffffffffffffffffffffffffffffffff167fb464ee1ab3c11f32128cf985db333142786d4aefe83b2064fabedbaddca3ae7d4283604051610749929190610efc565b60405180910390a250565b6107ea816040516024016107689190610dc1565b6040516020818303038152906040527f41304fac000000000000000000000000000000000000000000000000000000007bffffffffffffffffffffffffffffffffffffffffffffffffffffffff19166020820180517bffffffffffffffffffffffffffffffffffffffffffffffffffffffff83818316178352505050506109c4565b50565b6108858282604051602401610803929190610e51565b6040516020818303038152906040527f9710a9d0000000000000000000000000000000000000000000000000000000007bffffffffffffffffffffffffffffffffffffffffffffffffffffffff19166020820180517bffffffffffffffffffffffffffffffffffffffffffffffffffffffff83818316178352505050506109c4565b5050565b6109238383836040516024016108a193929190610e13565b6040516020818303038152906040527f07c81217000000000000000000000000000000000000000000000000000000007bffffffffffffffffffffffffffffffffffffffffffffffffffffffff19166020820180517bffffffffffffffffffffffffffffffffffffffffffffffffffffffff83818316178352505050506109c4565b505050565b6109c0828260405160240161093e929190610de3565b6040516020818303038152906040527f319af333000000000000000000000000000000000000000000000000000000007bffffffffffffffffffffffffffffffffffffffffffffffffffffffff19166020820180517bffffffffffffffffffffffffffffffffffffffffffffffffffffffff83818316178352505050506109c4565b5050565b60008151905060006a636f6e736f6c652e6c6f679050602083016000808483855afa5050505050565b8280546109f9906110c7565b90600052602060002090601f016020900481019282610a1b5760008555610a62565b82601f10610a3457805160ff1916838001178555610a62565b82800160010185558215610a62579182015b82811115610a61578251825591602001919060010190610a46565b5b509050610a6f9190610a73565b5090565b5b80821115610a8c576000816000905550600101610a74565b5090565b6000610aa3610a9e84610f51565b610f2c565b905082815260208101848484011115610abb57600080fd5b610ac6848285611085565b509392505050565b600081359050610add816112f2565b92915050565b600082601f830112610af457600080fd5b8135610b04848260208601610a90565b91505092915050565b600060208284031215610b1f57600080fd5b6000610b2d84828501610ace565b91505092915050565b600060208284031215610b4857600080fd5b600082013567ffffffffffffffff811115610b6257600080fd5b610b6e84828501610ae3565b91505092915050565b6000610b838383610d1c565b905092915050565b610b9481611049565b82525050565b610ba381611049565b82525050565b6000610bb482610f92565b610bbe8185610fb5565b935083602082028501610bd085610f82565b8060005b85811015610c0c5784840389528151610bed8582610b77565b9450610bf883610fa8565b925060208a01995050600181019050610bd4565b50829750879550505050505092915050565b6000610c2982610f9d565b610c338185610fd1565b9350610c43818560208601611094565b610c4c81611217565b840191505092915050565b6000610c6282610f9d565b610c6c8185610fe2565b9350610c7c818560208601611094565b610c8581611217565b840191505092915050565b6000610c9d603483610fe2565b9150610ca882611228565b604082019050919050565b6000610cc0602783610fe2565b9150610ccb82611277565b604082019050919050565b6000610ce3600083610fc6565b9150610cee826112c6565b600082019050919050565b6000610d06600883610fe2565b9150610d11826112c9565b602082019050919050565b6000606083016000830151610d346000860182610b8b565b5060208301518482036020860152610d4c8282610c1e565b9150506040830151610d616040860182610d6c565b508091505092915050565b610d758161107b565b82525050565b610d848161107b565b82525050565b6000610d9582610cd6565b9150819050919050565b60006020820190508181036000830152610db98184610ba9565b905092915050565b60006020820190508181036000830152610ddb8184610c57565b905092915050565b60006040820190508181036000830152610dfd8185610c57565b9050610e0c6020830184610b9a565b9392505050565b60006060820190508181036000830152610e2d8186610c57565b9050610e3c6020830185610b9a565b610e496040830184610d7b565b949350505050565b60006040820190508181036000830152610e6b8185610c57565b9050610e7a6020830184610d7b565b9392505050565b60006020820190508181036000830152610e9a81610c90565b9050919050565b60006020820190508181036000830152610eba81610cb3565b9050919050565b60006020820190508181036000830152610eda81610cf9565b9050919050565b6000602082019050610ef66000830184610d7b565b92915050565b6000604082019050610f116000830185610d7b565b8181036020830152610f238184610c57565b90509392505050565b6000610f36610f47565b9050610f4282826110f9565b919050565b6000604051905090565b600067ffffffffffffffff821115610f6c57610f6b6111e8565b5b610f7582611217565b9050602081019050919050565b6000819050602082019050919050565b600081519050919050565b600081519050919050565b6000602082019050919050565b600082825260208201905092915050565b600081905092915050565b600082825260208201905092915050565b600082825260208201905092915050565b6000610ffe8261107b565b91506110098361107b565b9250827fffffffffffffffffffffffffffffffffffffffffffffffffffffffffffffffff0382111561103e5761103d61115b565b5b828201905092915050565b60006110548261105b565b9050919050565b600073ffffffffffffffffffffffffffffffffffffffff82169050919050565b6000819050919050565b82818337600083830152505050565b60005b838110156110b2578082015181840152602081019050611097565b838111156110c1576000848401525b50505050565b600060028204905060018216806110df57607f821691505b602082108114156110f3576110f26111b9565b5b50919050565b61110282611217565b810181811067ffffffffffffffff82111715611121576111206111e8565b5b80604052505050565b60006111358261107b565b91506111408361107b565b9250826111505761114f61118a565b5b828206905092915050565b7f4e487b7100000000000000000000000000000000000000000000000000000000600052601160045260246000fd5b7f4e487b7100000000000000000000000000000000000000000000000000000000600052601260045260246000fd5b7f4e487b7100000000000000000000000000000000000000000000000000000000600052602260045260246000fd5b7f4e487b7100000000000000000000000000000000000000000000000000000000600052604160045260246000fd5b6000601f19601f8301169050919050565b7f547279696e6720746f207769746864726177206d6f7265206d6f6e657920746860008201527f616e2074686520636f6e7472616374206861732e000000000000000000000000602082015250565b7f4661696c656420746f207769746864726177206d6f6e65792066726f6d20636f60008201527f6e74726163742e00000000000000000000000000000000000000000000000000602082015250565b50565b7f576169742031356d000000000000000000000000000000000000000000000000600082015250565b6112fb81611049565b811461130657600080fd5b5056fe25732068617320676d276421204e756d626572206f662074696d6573207468657927766520676d27643a202564a264697066735822122029809cf5cdfb888012afd1f7ac88ee9823c9306d29e5bf11a77c1092c9ca45d664736f6c63430008040033",
    "linkReferences": {},
    "deployedLinkReferences": {}
}